{
  "_format": "hh-sol-artifact-1",
  "contractName": "CygnusCollateral",
  "sourceName": "contracts/cygnus-core/CygnusCollateral.sol",
  "abi": [
    {
      "inputs": [],
      "name": "AllowanceOverflow",
      "type": "error"
    },
    {
      "inputs": [],
      "name": "AllowanceUnderflow",
      "type": "error"
    },
    {
      "inputs": [],
      "name": "CygnusCollateralControl__ParameterNotInRange",
      "type": "error"
    },
    {
      "inputs": [],
      "name": "CygnusCollateralModel__InvalidBorrower",
      "type": "error"
    },
    {
      "inputs": [],
      "name": "CygnusCollateralModel__PriceCantBeZero",
      "type": "error"
    },
    {
      "inputs": [],
      "name": "CygnusCollateralVoid__OnlyHarvesterAllowed",
      "type": "error"
    },
    {
      "inputs": [],
      "name": "CygnusCollateralVoid__TokenIsUnderlying",
      "type": "error"
    },
    {
      "inputs": [],
      "name": "CygnusCollateral__CantLiquidateZero",
      "type": "error"
    },
    {
      "inputs": [],
      "name": "CygnusCollateral__CantRedeemZero",
      "type": "error"
    },
    {
      "inputs": [],
      "name": "CygnusCollateral__InsufficientCygLPReceived",
      "type": "error"
    },
    {
      "inputs": [],
      "name": "CygnusCollateral__InsufficientLiquidity",
      "type": "error"
    },
    {
      "inputs": [],
      "name": "CygnusCollateral__MsgSenderNotBorrowable",
      "type": "error"
    },
    {
      "inputs": [],
      "name": "CygnusCollateral__NotLiquidatable",
      "type": "error"
    },
    {
      "inputs": [],
      "name": "CygnusTerminal__CantMintZeroShares",
      "type": "error"
    },
    {
      "inputs": [],
      "name": "CygnusTerminal__CantRedeemZeroAssets",
      "type": "error"
    },
    {
      "inputs": [],
      "name": "CygnusTerminal__MsgSenderNotAdmin",
      "type": "error"
    },
    {
      "inputs": [],
      "name": "InsufficientAllowance",
      "type": "error"
    },
    {
      "inputs": [],
      "name": "InsufficientBalance",
      "type": "error"
    },
    {
      "inputs": [],
      "name": "InvalidPermit",
      "type": "error"
    },
    {
      "inputs": [],
      "name": "PermitExpired",
      "type": "error"
    },
    {
      "inputs": [],
      "name": "ReentrantCall",
      "type": "error"
    },
    {
      "inputs": [],
      "name": "TotalSupplyOverflow",
      "type": "error"
    },
    {
      "anonymous": false,
      "inputs": [
        {
          "indexed": true,
          "internalType": "address",
          "name": "owner",
          "type": "address"
        },
        {
          "indexed": true,
          "internalType": "address",
          "name": "spender",
          "type": "address"
        },
        {
          "indexed": false,
          "internalType": "uint256",
          "name": "amount",
          "type": "uint256"
        }
      ],
      "name": "Approval",
      "type": "event"
    },
    {
      "anonymous": false,
      "inputs": [
        {
          "indexed": false,
          "internalType": "address",
          "name": "underlying",
          "type": "address"
        },
        {
          "indexed": false,
          "internalType": "uint256",
          "name": "shuttleId",
          "type": "uint256"
        },
        {
          "indexed": false,
          "internalType": "address",
          "name": "whitelisted",
          "type": "address"
        }
      ],
      "name": "ChargeVoid",
      "type": "event"
    },
    {
      "anonymous": false,
      "inputs": [
        {
          "indexed": true,
          "internalType": "address",
          "name": "sender",
          "type": "address"
        },
        {
          "indexed": true,
          "internalType": "address",
          "name": "recipient",
          "type": "address"
        },
        {
          "indexed": false,
          "internalType": "uint256",
          "name": "assets",
          "type": "uint256"
        },
        {
          "indexed": false,
          "internalType": "uint256",
          "name": "shares",
          "type": "uint256"
        }
      ],
      "name": "Deposit",
      "type": "event"
    },
    {
      "anonymous": false,
      "inputs": [
        {
          "indexed": false,
          "internalType": "uint256",
          "name": "oldDebtRatio",
          "type": "uint256"
        },
        {
          "indexed": false,
          "internalType": "uint256",
          "name": "newDebtRatio",
          "type": "uint256"
        }
      ],
      "name": "NewDebtRatio",
      "type": "event"
    },
    {
      "anonymous": false,
      "inputs": [
        {
          "indexed": false,
          "internalType": "address",
          "name": "oldHarvester",
          "type": "address"
        },
        {
          "indexed": false,
          "internalType": "address",
          "name": "newHarvester",
          "type": "address"
        },
        {
          "indexed": false,
          "internalType": "address[]",
          "name": "rewardTokens",
          "type": "address[]"
        }
      ],
      "name": "NewHarvester",
      "type": "event"
    },
    {
      "anonymous": false,
      "inputs": [
        {
          "indexed": false,
          "internalType": "uint256",
          "name": "oldLiquidationFee",
          "type": "uint256"
        },
        {
          "indexed": false,
          "internalType": "uint256",
          "name": "newLiquidationFee",
          "type": "uint256"
        }
      ],
      "name": "NewLiquidationFee",
      "type": "event"
    },
    {
      "anonymous": false,
      "inputs": [
        {
          "indexed": false,
          "internalType": "uint256",
          "name": "oldLiquidationIncentive",
          "type": "uint256"
        },
        {
          "indexed": false,
          "internalType": "uint256",
          "name": "newLiquidationIncentive",
          "type": "uint256"
        }
      ],
      "name": "NewLiquidationIncentive",
      "type": "event"
    },
    {
      "anonymous": false,
      "inputs": [
        {
          "indexed": true,
          "internalType": "address",
          "name": "sender",
          "type": "address"
        },
        {
          "indexed": false,
          "internalType": "address[]",
          "name": "tokens",
          "type": "address[]"
        },
        {
          "indexed": false,
          "internalType": "uint256[]",
          "name": "amounts",
          "type": "uint256[]"
        },
        {
          "indexed": false,
          "internalType": "uint256",
          "name": "timestamp",
          "type": "uint256"
        }
      ],
      "name": "RechargeVoid",
      "type": "event"
    },
    {
      "anonymous": false,
      "inputs": [
        {
          "indexed": true,
          "internalType": "address",
          "name": "liquidator",
          "type": "address"
        },
        {
          "indexed": true,
          "internalType": "address",
          "name": "borrower",
          "type": "address"
        },
        {
          "indexed": false,
          "internalType": "uint256",
          "name": "cygLPAmount",
          "type": "uint256"
        },
        {
          "indexed": false,
          "internalType": "uint256",
          "name": "daoFee",
          "type": "uint256"
        },
        {
          "indexed": false,
          "internalType": "uint256",
          "name": "seized",
          "type": "uint256"
        }
      ],
      "name": "SeizeCygLP",
      "type": "event"
    },
    {
      "anonymous": false,
      "inputs": [
        {
          "indexed": false,
          "internalType": "uint160",
          "name": "totalBalance",
          "type": "uint160"
        }
      ],
      "name": "Sync",
      "type": "event"
    },
    {
      "anonymous": false,
      "inputs": [
        {
          "indexed": true,
          "internalType": "address",
          "name": "from",
          "type": "address"
        },
        {
          "indexed": true,
          "internalType": "address",
          "name": "to",
          "type": "address"
        },
        {
          "indexed": false,
          "internalType": "uint256",
          "name": "amount",
          "type": "uint256"
        }
      ],
      "name": "Transfer",
      "type": "event"
    },
    {
      "anonymous": false,
      "inputs": [
        {
          "indexed": true,
          "internalType": "address",
          "name": "sender",
          "type": "address"
        },
        {
          "indexed": true,
          "internalType": "address",
          "name": "recipient",
          "type": "address"
        },
        {
          "indexed": true,
          "internalType": "address",
          "name": "owner",
          "type": "address"
        },
        {
          "indexed": false,
          "internalType": "uint256",
          "name": "assets",
          "type": "uint256"
        },
        {
          "indexed": false,
          "internalType": "uint256",
          "name": "shares",
          "type": "uint256"
        }
      ],
      "name": "Withdraw",
      "type": "event"
    },
    {
      "inputs": [],
      "name": "DOMAIN_SEPARATOR",
      "outputs": [
        {
          "internalType": "bytes32",
          "name": "result",
          "type": "bytes32"
        }
      ],
      "stateMutability": "view",
      "type": "function"
    },
    {
      "inputs": [],
      "name": "PERMIT2",
      "outputs": [
        {
          "internalType": "contract IAllowanceTransfer",
          "name": "",
          "type": "address"
        }
      ],
      "stateMutability": "view",
      "type": "function"
    },
    {
      "inputs": [
        {
          "internalType": "uint256",
          "name": "",
          "type": "uint256"
        }
      ],
      "name": "allRewardTokens",
      "outputs": [
        {
          "internalType": "address",
          "name": "",
          "type": "address"
        }
      ],
      "stateMutability": "view",
      "type": "function"
    },
    {
      "inputs": [
        {
          "internalType": "address",
          "name": "owner",
          "type": "address"
        },
        {
          "internalType": "address",
          "name": "spender",
          "type": "address"
        }
      ],
      "name": "allowance",
      "outputs": [
        {
          "internalType": "uint256",
          "name": "result",
          "type": "uint256"
        }
      ],
      "stateMutability": "view",
      "type": "function"
    },
    {
      "inputs": [
        {
          "internalType": "address",
          "name": "spender",
          "type": "address"
        },
        {
          "internalType": "uint256",
          "name": "amount",
          "type": "uint256"
        }
      ],
      "name": "approve",
      "outputs": [
        {
          "internalType": "bool",
          "name": "",
          "type": "bool"
        }
      ],
      "stateMutability": "nonpayable",
      "type": "function"
    },
    {
      "inputs": [
        {
          "internalType": "address",
          "name": "owner",
          "type": "address"
        }
      ],
      "name": "balanceOf",
      "outputs": [
        {
          "internalType": "uint256",
          "name": "result",
          "type": "uint256"
        }
      ],
      "stateMutability": "view",
      "type": "function"
    },
    {
      "inputs": [],
      "name": "borrowable",
      "outputs": [
        {
          "internalType": "address",
          "name": "",
          "type": "address"
        }
      ],
      "stateMutability": "view",
      "type": "function"
    },
    {
      "inputs": [
        {
          "internalType": "address",
          "name": "borrower",
          "type": "address"
        },
        {
          "internalType": "uint256",
          "name": "borrowAmount",
          "type": "uint256"
        }
      ],
      "name": "canBorrow",
      "outputs": [
        {
          "internalType": "bool",
          "name": "",
          "type": "bool"
        }
      ],
      "stateMutability": "view",
      "type": "function"
    },
    {
      "inputs": [
        {
          "internalType": "address",
          "name": "borrower",
          "type": "address"
        },
        {
          "internalType": "uint256",
          "name": "redeemAmount",
          "type": "uint256"
        }
      ],
      "name": "canRedeem",
      "outputs": [
        {
          "internalType": "bool",
          "name": "",
          "type": "bool"
        }
      ],
      "stateMutability": "view",
      "type": "function"
    },
    {
      "inputs": [],
      "name": "chargeVoid",
      "outputs": [],
      "stateMutability": "nonpayable",
      "type": "function"
    },
    {
      "inputs": [],
      "name": "debtRatio",
      "outputs": [
        {
          "internalType": "uint256",
          "name": "",
          "type": "uint256"
        }
      ],
      "stateMutability": "view",
      "type": "function"
    },
    {
      "inputs": [],
      "name": "decimals",
      "outputs": [
        {
          "internalType": "uint8",
          "name": "",
          "type": "uint8"
        }
      ],
      "stateMutability": "view",
      "type": "function"
    },
    {
      "inputs": [
        {
          "internalType": "address",
          "name": "spender",
          "type": "address"
        },
        {
          "internalType": "uint256",
          "name": "difference",
          "type": "uint256"
        }
      ],
      "name": "decreaseAllowance",
      "outputs": [
        {
          "internalType": "bool",
          "name": "",
          "type": "bool"
        }
      ],
      "stateMutability": "nonpayable",
      "type": "function"
    },
    {
      "inputs": [
        {
          "internalType": "uint256",
          "name": "assets",
          "type": "uint256"
        },
        {
          "internalType": "address",
          "name": "recipient",
          "type": "address"
        },
        {
          "components": [
            {
              "components": [
                {
                  "internalType": "address",
                  "name": "token",
                  "type": "address"
                },
                {
                  "internalType": "uint160",
                  "name": "amount",
                  "type": "uint160"
                },
                {
                  "internalType": "uint48",
                  "name": "expiration",
                  "type": "uint48"
                },
                {
                  "internalType": "uint48",
                  "name": "nonce",
                  "type": "uint48"
                }
              ],
              "internalType": "struct IAllowanceTransfer.PermitDetails",
              "name": "details",
              "type": "tuple"
            },
            {
              "internalType": "address",
              "name": "spender",
              "type": "address"
            },
            {
              "internalType": "uint256",
              "name": "sigDeadline",
              "type": "uint256"
            }
          ],
          "internalType": "struct IAllowanceTransfer.PermitSingle",
          "name": "_permit",
          "type": "tuple"
        },
        {
          "internalType": "bytes",
          "name": "signature",
          "type": "bytes"
        }
      ],
      "name": "deposit",
      "outputs": [
        {
          "internalType": "uint256",
          "name": "shares",
          "type": "uint256"
        }
      ],
      "stateMutability": "nonpayable",
      "type": "function"
    },
    {
      "inputs": [],
      "name": "exchangeRate",
      "outputs": [
        {
          "internalType": "uint256",
          "name": "",
          "type": "uint256"
        }
      ],
      "stateMutability": "view",
      "type": "function"
    },
    {
      "inputs": [
        {
          "internalType": "address",
          "name": "redeemer",
          "type": "address"
        },
        {
          "internalType": "uint256",
          "name": "assets",
          "type": "uint256"
        },
        {
          "internalType": "bytes",
          "name": "data",
          "type": "bytes"
        }
      ],
      "name": "flashRedeemAltair",
      "outputs": [
        {
          "internalType": "uint256",
          "name": "usdAmount",
          "type": "uint256"
        }
      ],
      "stateMutability": "nonpayable",
      "type": "function"
    },
    {
      "inputs": [
        {
          "internalType": "address",
          "name": "borrower",
          "type": "address"
        }
      ],
      "name": "getAccountLiquidity",
      "outputs": [
        {
          "internalType": "uint256",
          "name": "liquidity",
          "type": "uint256"
        },
        {
          "internalType": "uint256",
          "name": "shortfall",
          "type": "uint256"
        }
      ],
      "stateMutability": "view",
      "type": "function"
    },
    {
      "inputs": [
        {
          "internalType": "address",
          "name": "borrower",
          "type": "address"
        }
      ],
      "name": "getBorrowerPosition",
      "outputs": [
        {
          "internalType": "uint256",
          "name": "cygLPBalance",
          "type": "uint256"
        },
        {
          "internalType": "uint256",
          "name": "principal",
          "type": "uint256"
        },
        {
          "internalType": "uint256",
          "name": "borrowBalance",
          "type": "uint256"
        },
        {
          "internalType": "uint256",
          "name": "price",
          "type": "uint256"
        },
        {
          "internalType": "uint256",
          "name": "rate",
          "type": "uint256"
        },
        {
          "internalType": "uint256",
          "name": "positionUsd",
          "type": "uint256"
        },
        {
          "internalType": "uint256",
          "name": "positionLp",
          "type": "uint256"
        },
        {
          "internalType": "uint256",
          "name": "health",
          "type": "uint256"
        }
      ],
      "stateMutability": "view",
      "type": "function"
    },
    {
      "inputs": [],
      "name": "getLPTokenPrice",
      "outputs": [
        {
          "internalType": "uint256",
          "name": "price",
          "type": "uint256"
        }
      ],
      "stateMutability": "view",
      "type": "function"
    },
    {
      "inputs": [],
      "name": "getRewards",
      "outputs": [
        {
          "internalType": "address[]",
          "name": "tokens",
          "type": "address[]"
        },
        {
          "internalType": "uint256[]",
          "name": "amounts",
          "type": "uint256[]"
        }
      ],
      "stateMutability": "nonpayable",
      "type": "function"
    },
    {
      "inputs": [],
      "name": "hangar18",
      "outputs": [
        {
          "internalType": "contract IHangar18",
          "name": "",
          "type": "address"
        }
      ],
      "stateMutability": "view",
      "type": "function"
    },
    {
      "inputs": [],
      "name": "harvester",
      "outputs": [
        {
          "internalType": "address",
          "name": "",
          "type": "address"
        }
      ],
      "stateMutability": "view",
      "type": "function"
    },
    {
      "inputs": [
        {
          "internalType": "address",
          "name": "spender",
          "type": "address"
        },
        {
          "internalType": "uint256",
          "name": "difference",
          "type": "uint256"
        }
      ],
      "name": "increaseAllowance",
      "outputs": [
        {
          "internalType": "bool",
          "name": "",
          "type": "bool"
        }
      ],
      "stateMutability": "nonpayable",
      "type": "function"
    },
    {
      "inputs": [],
      "name": "lastHarvest",
      "outputs": [
        {
          "internalType": "uint256",
          "name": "",
          "type": "uint256"
        }
      ],
      "stateMutability": "view",
      "type": "function"
    },
    {
      "inputs": [],
      "name": "liquidationFee",
      "outputs": [
        {
          "internalType": "uint256",
          "name": "",
          "type": "uint256"
        }
      ],
      "stateMutability": "view",
      "type": "function"
    },
    {
      "inputs": [],
      "name": "liquidationIncentive",
      "outputs": [
        {
          "internalType": "uint256",
          "name": "",
          "type": "uint256"
        }
      ],
      "stateMutability": "view",
      "type": "function"
    },
    {
      "inputs": [],
      "name": "name",
      "outputs": [
        {
          "internalType": "string",
          "name": "",
          "type": "string"
        }
      ],
      "stateMutability": "pure",
      "type": "function"
    },
    {
      "inputs": [],
      "name": "nebula",
      "outputs": [
        {
          "internalType": "contract ICygnusNebula",
          "name": "",
          "type": "address"
        }
      ],
      "stateMutability": "view",
      "type": "function"
    },
    {
      "inputs": [
        {
          "internalType": "address",
          "name": "owner",
          "type": "address"
        }
      ],
      "name": "nonces",
      "outputs": [
        {
          "internalType": "uint256",
          "name": "result",
          "type": "uint256"
        }
      ],
      "stateMutability": "view",
      "type": "function"
    },
    {
      "inputs": [
        {
          "internalType": "address",
          "name": "owner",
          "type": "address"
        },
        {
          "internalType": "address",
          "name": "spender",
          "type": "address"
        },
        {
          "internalType": "uint256",
          "name": "value",
          "type": "uint256"
        },
        {
          "internalType": "uint256",
          "name": "deadline",
          "type": "uint256"
        },
        {
          "internalType": "uint8",
          "name": "v",
          "type": "uint8"
        },
        {
          "internalType": "bytes32",
          "name": "r",
          "type": "bytes32"
        },
        {
          "internalType": "bytes32",
          "name": "s",
          "type": "bytes32"
        }
      ],
      "name": "permit",
      "outputs": [],
      "stateMutability": "nonpayable",
      "type": "function"
    },
    {
      "inputs": [
        {
          "internalType": "uint256",
          "name": "shares",
          "type": "uint256"
        },
        {
          "internalType": "address",
          "name": "recipient",
          "type": "address"
        },
        {
          "internalType": "address",
          "name": "owner",
          "type": "address"
        }
      ],
      "name": "redeem",
      "outputs": [
        {
          "internalType": "uint256",
          "name": "assets",
          "type": "uint256"
        }
      ],
      "stateMutability": "nonpayable",
      "type": "function"
    },
    {
      "inputs": [
        {
          "internalType": "uint256",
          "name": "liquidity",
          "type": "uint256"
        }
      ],
      "name": "reinvestRewards_y7b",
      "outputs": [],
      "stateMutability": "nonpayable",
      "type": "function"
    },
    {
      "inputs": [],
      "name": "rewardTokensLength",
      "outputs": [
        {
          "internalType": "uint256",
          "name": "",
          "type": "uint256"
        }
      ],
      "stateMutability": "view",
      "type": "function"
    },
    {
      "inputs": [],
      "name": "rewarder",
      "outputs": [
        {
          "internalType": "address",
          "name": "",
          "type": "address"
        }
      ],
      "stateMutability": "pure",
      "type": "function"
    },
    {
      "inputs": [
        {
          "internalType": "address",
          "name": "liquidator",
          "type": "address"
        },
        {
          "internalType": "address",
          "name": "borrower",
          "type": "address"
        },
        {
          "internalType": "uint256",
          "name": "repayAmount",
          "type": "uint256"
        }
      ],
      "name": "seizeCygLP",
      "outputs": [
        {
          "internalType": "uint256",
          "name": "cygLPAmount",
          "type": "uint256"
        }
      ],
      "stateMutability": "nonpayable",
      "type": "function"
    },
    {
      "inputs": [
        {
          "internalType": "uint256",
          "name": "newDebtRatio",
          "type": "uint256"
        }
      ],
      "name": "setDebtRatio",
      "outputs": [],
      "stateMutability": "nonpayable",
      "type": "function"
    },
    {
      "inputs": [
        {
          "internalType": "address",
          "name": "newHarvester",
          "type": "address"
        },
        {
          "internalType": "address[]",
          "name": "rewardTokens",
          "type": "address[]"
        }
      ],
      "name": "setHarvester",
      "outputs": [],
      "stateMutability": "nonpayable",
      "type": "function"
    },
    {
      "inputs": [
        {
          "internalType": "uint256",
          "name": "newLiquidationFee",
          "type": "uint256"
        }
      ],
      "name": "setLiquidationFee",
      "outputs": [],
      "stateMutability": "nonpayable",
      "type": "function"
    },
    {
      "inputs": [
        {
          "internalType": "uint256",
          "name": "newLiquidationIncentive",
          "type": "uint256"
        }
      ],
      "name": "setLiquidationIncentive",
      "outputs": [],
      "stateMutability": "nonpayable",
      "type": "function"
    },
    {
      "inputs": [],
      "name": "shuttleId",
      "outputs": [
        {
          "internalType": "uint256",
          "name": "",
          "type": "uint256"
        }
      ],
      "stateMutability": "view",
      "type": "function"
    },
    {
      "inputs": [
        {
          "internalType": "address",
          "name": "token",
          "type": "address"
        },
        {
          "internalType": "address",
          "name": "to",
          "type": "address"
        }
      ],
      "name": "sweepToken",
      "outputs": [],
      "stateMutability": "nonpayable",
      "type": "function"
    },
    {
      "inputs": [],
      "name": "symbol",
      "outputs": [
        {
          "internalType": "string",
          "name": "",
          "type": "string"
        }
      ],
      "stateMutability": "view",
      "type": "function"
    },
    {
      "inputs": [],
      "name": "sync",
      "outputs": [],
      "stateMutability": "nonpayable",
      "type": "function"
    },
    {
      "inputs": [],
      "name": "totalAssets",
      "outputs": [
        {
          "internalType": "uint256",
          "name": "",
          "type": "uint256"
        }
      ],
      "stateMutability": "view",
      "type": "function"
    },
    {
      "inputs": [],
      "name": "totalBalance",
      "outputs": [
        {
          "internalType": "uint160",
          "name": "",
          "type": "uint160"
        }
      ],
      "stateMutability": "view",
      "type": "function"
    },
    {
      "inputs": [],
      "name": "totalSupply",
      "outputs": [
        {
          "internalType": "uint256",
          "name": "result",
          "type": "uint256"
        }
      ],
      "stateMutability": "view",
      "type": "function"
    },
    {
      "inputs": [
        {
          "internalType": "address",
          "name": "to",
          "type": "address"
        },
        {
          "internalType": "uint256",
          "name": "amount",
          "type": "uint256"
        }
      ],
      "name": "transfer",
      "outputs": [
        {
          "internalType": "bool",
          "name": "",
          "type": "bool"
        }
      ],
      "stateMutability": "nonpayable",
      "type": "function"
    },
    {
      "inputs": [
        {
          "internalType": "address",
          "name": "from",
          "type": "address"
        },
        {
          "internalType": "address",
          "name": "to",
          "type": "address"
        },
        {
          "internalType": "uint256",
          "name": "amount",
          "type": "uint256"
        }
      ],
      "name": "transferFrom",
      "outputs": [
        {
          "internalType": "bool",
          "name": "",
          "type": "bool"
        }
      ],
      "stateMutability": "nonpayable",
      "type": "function"
    },
    {
      "inputs": [],
      "name": "underlying",
      "outputs": [
        {
          "internalType": "address",
          "name": "",
          "type": "address"
        }
      ],
      "stateMutability": "view",
      "type": "function"
    }
  ],
  "bytecode": "0x6101208060405234620001fb576000805460ff19166001178155635a412e5360e01b825260a09190828260048184335af1918215620001ee5781809181809181966200013a575b505061010094855260e05260805260c0528252670d2f13f7789f0000600155670e6ed27d66680000600255662386f26fc1000060035560001960045560405190613980928362000216843960805183818161071401528181610eca0152818161120601528181612d6d0152612fda0152518281816107830152818161134d01526132b9015260c05182818161045c01528181610de401528181611091015281816117e301528181611a1c01528181611f0e015281816122fc015281816123f101528181612e90015281816131da0152613429015260e0518281816120e60152612eb7015251818181610e080152611fb00152f35b94509450505050823d8411620001e6575b601f8101601f191682016001600160401b03811183821017620001d2578491839160405281010312620001ce578051916001600160a01b038084168403620001ce576200019b6020840162000200565b92620001aa6040820162000200565b9260608201519283168303620001cb57506080015193929190388062000046565b80fd5b5080fd5b634e487b7160e01b84526041600452602484fd5b503d6200014b565b50604051903d90823e3d90fd5b600080fd5b51906001600160a01b0382168203620001fb5756fe6080604081815260048036101561001557600080fd5b600092833560e01c90816301e1d114146129aa575080630572b0cc146126b057806306fdde0314612669578063095ea7b3146125cb57806318160ddd1461258657806323b872dd14612457578063258836fe14612386578063313ce5671461228b5780633644e5151461225057806339509351146121985780633ba0b9a91461215d5780634bdaeac11461210a5780634ecde8491461209b57806351303622146120595780635ec88c7914611fd35780635f77f89114611f7a5780636afdd85014611f325780636f307dc314611ec357806370a0823114611e5d5780637ecebe0014611df757806381f5b6f414611d445780638808e71c146119435780638c765e941461190657806395d89b41146117735780639ee80c5c146116f1578063a36a3630146116b4578063a457c2d7146115fb578063a84310811461155f578063a9059cbb14611495578063ad7a672f14611441578063b4ebbda41461119f578063ba08765214610fc9578063bb3f673614610e33578063bcbc332014610d59578063bf199e6214610d1c578063cc1f8ffa14610cb4578063cea55f5714610c77578063cf8c8c4414610c0c578063d505accf14610a8d578063d959a0161461086a578063dcc3e06e1461081d578063dd62ed3e146107a7578063e8a24e1d14610738578063e99a6ac7146106c9578063eb6a887d1461062d578063f1a392da146105f0578063fa14fdc214610388578063fef0bec8146102dd5763fff6cae91461023e57600080fd5b346102d957827ffffffffffffffffffffffffffffffffffffffffffffffffffffffffffffffffc3601126102d95782549160ff8316156102b357836001847fffffffffffffffffffffffffffffffffffffffffffffffffffffffffffffff0080911683556102aa6133fd565b82541617815580f35b517f37ed32e8000000000000000000000000000000000000000000000000000000008152fd5b8280fd5b50346102d95760207ffffffffffffffffffffffffffffffffffffffffffffffffffffffffffffffffc3601126102d957803590610318613274565b67016345785d8a000082116103615750907f87272249f1056ec16a68dd9255101358246dd26a796e2f0bc6b3a0ad02f2de4191600354908060035582519182526020820152a180f35b82517f0b169966000000000000000000000000000000000000000000000000000000008152fd5b509190346105ec5760607ffffffffffffffffffffffffffffffffffffffffffffffffffffffffffffffffc3601126105ec5773ffffffffffffffffffffffffffffffffffffffff9183358381168103610581576024359460443567ffffffffffffffff81116105e8576103fe9036908301612ae6565b84549760ff8916156105c0577fffffffffffffffffffffffffffffffffffffffffffffffffffffffffffffff0098898116875586988215610598576104596104809284926805345cdf77eb68f44c549160081c16908361383d565b967f00000000000000000000000000000000000000000000000000000000000000006138b2565b816104ec575b5050506387a211a2600c523083526020600c20549182106104c557506020946104b1600192306135f2565b6104b96133fd565b82541617905551908152f35b83517f6fdda956000000000000000000000000000000000000000000000000000000008152fd5b60209293975061053a875194859384937f989bebcf000000000000000000000000000000000000000000000000000000008552338c8601526024850152606060448501526064840191612bec565b038186335af190811561058e578391610558575b5093388080610486565b90506020813d8211610586575b8161057260209383612b14565b8101031261058157513861054e565b600080fd5b3d9150610565565b84513d85823e3d90fd5b8589517f2a285905000000000000000000000000000000000000000000000000000000008152fd5b8387517f37ed32e8000000000000000000000000000000000000000000000000000000008152fd5b8380fd5b5080fd5b5050346105ec57817ffffffffffffffffffffffffffffffffffffffffffffffffffffffffffffffffc3601126105ec576020906007549051908152f35b50346102d95760207ffffffffffffffffffffffffffffffffffffffffffffffffffffffffffffffffc3601126102d957803590610668613274565b670b1a2bc2ec500000821080156106b8575b6103615750907ff25d2243e4128e51523d8537f04f18c3e6390bbfc6323390a9a8e59b921ce04691600154908060015582519182526020820152a180f35b50670de0b6b3a7640000821161067a565b5050346105ec57817ffffffffffffffffffffffffffffffffffffffffffffffffffffffffffffffffc3601126105ec576020905173ffffffffffffffffffffffffffffffffffffffff7f0000000000000000000000000000000000000000000000000000000000000000168152f35b5050346105ec57817ffffffffffffffffffffffffffffffffffffffffffffffffffffffffffffffffc3601126105ec576020905173ffffffffffffffffffffffffffffffffffffffff7f0000000000000000000000000000000000000000000000000000000000000000168152f35b50346102d957817ffffffffffffffffffffffffffffffffffffffffffffffffffffffffffffffffc3601126102d9573573ffffffffffffffffffffffffffffffffffffffff928382168203610581576024359384168403610581576020938452637f5e9f20600c52526034600c20549051908152f35b5050346105ec57817ffffffffffffffffffffffffffffffffffffffffffffffffffffffffffffffffc3601126105ec57602090517320ec0d06f447d550fc6edee42121bc8c1817b97d8152f35b509190346105ec57807ffffffffffffffffffffffffffffffffffffffffffffffffffffffffffffffffc3601126105ec5773ffffffffffffffffffffffffffffffffffffffff83358181169291838203610581576024359567ffffffffffffffff92838811610a895736602389011215610a895787820135938411610a8957602488019260059860243691878c1b010111610a855784848a979695949361093961092c61093361093e9661091c613274565b600654169b8b519283809261304d565b0382612b14565b8a613149565b6131ba565b857fffffffffffffffffffffffff00000000000000000000000000000000000000006006541617600655680100000000000000008311610a5957508654828855808310610a19575b50868652855b8281106109de575050507fddd57fd5151dbcab176b5c0606de5d7aa76cbbce6df7e771c62b17b56e97486c93946060826109d8935195869586526020860152840152606083019061304d565b0390a180f35b60019060206109ec846130fb565b930192817f036b6384b5eca791c62761152d0c79bb0604c104a5fb6f4eb0703f3154bb3db001550161098c565b827f036b6384b5eca791c62761152d0c79bb0604c104a5fb6f4eb0703f3154bb3db091820191015b818110610a4e5750610986565b878155600101610a41565b8660416024927f4e487b7100000000000000000000000000000000000000000000000000000000835252fd5b8780fd5b8680fd5b5090346102d95760e07ffffffffffffffffffffffffffffffffffffffffffffffffffffffffffffffffc3601126102d957813573ffffffffffffffffffffffffffffffffffffffff9081811680910361058157602435918216809203610581576084359360643560443560ff87168703610a8557610b09613512565b92865197834211610c00576338377508600c52858a5260209485600c20948554956001870190557f6e71edae12b1b97f4d1f60370fef10105fa2faae0126114a169c64845d6126c98b5287878c0152888a8c015260608b019585875260808c015260a08b01526119018b52855260c0892088526042601e208a5260ff16845260a435875260c435606052838060808b60015afa50843d5103610bf55750777f5e9f200000000000000000000000000000000000000000851786526034602c20557f8c5be1e5ebec7d5bd14f71427d1e84f3dd0314c0f7b2291e5b200ac8c7c3b9259190a3528060605280f35b63ddafbaef8952601cfd5b50631a15a3cc8952601cfd5b508234610c7457827ffffffffffffffffffffffffffffffffffffffffffffffffffffffffffffffffc360112610c745750359073ffffffffffffffffffffffffffffffffffffffff8216820361058157610c6b60209260243590612cbf565b91519115825250f35b80fd5b5050346105ec57817ffffffffffffffffffffffffffffffffffffffffffffffffffffffffffffffffc3601126105ec576020906001549051908152f35b508234610c7457827ffffffffffffffffffffffffffffffffffffffffffffffffffffffffffffffffc360112610c745750359073ffffffffffffffffffffffffffffffffffffffff8216820361058157610d1360209260243590612f5b565b90519015158152f35b5050346105ec57817ffffffffffffffffffffffffffffffffffffffffffffffffffffffffffffffffc3601126105ec576020906005549051908152f35b5050346105ec57817ffffffffffffffffffffffffffffffffffffffffffffffffffffffffffffffffc3601126105ec5760607f98ccebae89f16f152c93c6a0cdc0d99913b9e62a9fc612471c21ffc299c389fd91610db5613274565b7320ec0d06f447d550fc6edee42121bc8c1817b97d81519173ffffffffffffffffffffffffffffffffffffffff7f00000000000000000000000000000000000000000000000000000000000000001683527f00000000000000000000000000000000000000000000000000000000000000006020840152820152a180f35b508234610c745760207ffffffffffffffffffffffffffffffffffffffffffffffffffffffffffffffffc360112610c745773ffffffffffffffffffffffffffffffffffffffff9082358281168082036105815785916387a211a2600c52835260246020600c205495835195869384927f7d6af0790000000000000000000000000000000000000000000000000000000084528301527f0000000000000000000000000000000000000000000000000000000000000000165afa938415610fbf576101009482938391610f8c575b50610f09612e4b565b610f116133b9565b91610f2582610f20858a6136f5565b6136f5565b93610f3084896136f5565b9585610f6057965b815198895260208901528701526060860152608085015260a084015260c083015260e0820152f35b50610f86610f80600154610f7960025460035490612bb0565b9088613781565b8361373e565b96610f38565b905081610faf9294503d8511610fb8575b610fa78183612b14565b810190612ca9565b92909286610f00565b503d610f9d565b51903d90823e3d90fd5b5090346102d95760607ffffffffffffffffffffffffffffffffffffffffffffffffffffffffffffffffc3601126102d95773ffffffffffffffffffffffffffffffffffffffff92602435848116843581830361058157604435968716928388036105815784549760ff891615611177577fffffffffffffffffffffffffffffffffffffffffffffffffffffffffffffff008099168655843303611113575b6110708361337d565b9788156110ec5750916110b58860209a959361108f84600199976135f2565b7f00000000000000000000000000000000000000000000000000000000000000006138b2565b865190888252898201527ffbde797d201c681b91056529119e0b02407c7bb96a4a2c75c01fc9667232c8db873392a46104b96133fd565b87517fe3e8d297000000000000000000000000000000000000000000000000000000008152fd5b33602052637f5e9f20600c528086526034600c2080547fffffffffffffffffffffffffffffffffffffffffffffffffffffffffffffffff8103611158575b5050611067565b80851161116b5784900390553880611151565b896313be252b8952601cfd5b8787517f37ed32e8000000000000000000000000000000000000000000000000000000008152fd5b509134610c745760607ffffffffffffffffffffffffffffffffffffffffffffffffffffffffffffffffc36011261058157823573ffffffffffffffffffffffffffffffffffffffff80821680830361058157602435938285169283860361058157604435337f0000000000000000000000000000000000000000000000000000000000000000831614611254578888517fb2b19c2c000000000000000000000000000000000000000000000000000000008152fd5b80899198969798156114195761128a7fffffffffffffffffffffffffffffffffffffffffffffffffffffffffffffffff8a612cbf565b9050156113f1576112b26112ad6112ba926112a3612e4b565b9060025490613781565b61333c565b80988a61367e565b82976003548061130f575b50505050507f6b078885a9e49e8cb7156c2c48a5423d666dff282bd881b6174e1379fd541c3c6060866112fa60209888612bb0565b8651918883528983015286820152a351908152f35b602091929394995061132190896136f5565b938751938480927f5b068af80000000000000000000000000000000000000000000000000000000082527f0000000000000000000000000000000000000000000000000000000000000000165afa9182156113e757836060937f6b078885a9e49e8cb7156c2c48a5423d666dff282bd881b6174e1379fd541c3c95936113b09360209c926113b8575b5061367e565b9688806112c5565b6113d99192508c3d81116113e0575b6113d18183612b14565b810190612b84565b908c6113aa565b503d6113c7565b86513d8a823e3d90fd5b5085517fc381cd19000000000000000000000000000000000000000000000000000000008152fd5b5085517ff3934a23000000000000000000000000000000000000000000000000000000008152fd5b5050346105ec57817ffffffffffffffffffffffffffffffffffffffffffffffffffffffffffffffffc3601126105ec5773ffffffffffffffffffffffffffffffffffffffff6020925460081c169051908152f35b509134610c7457817ffffffffffffffffffffffffffffffffffffffffffffffffffffffffffffffffc360112610c7457823573ffffffffffffffffffffffffffffffffffffffff8116810361058157602435916114f283336134b6565b6387a211a2600c5233815260209485600c2090815490818611611554575084900390555282600c208181540190558252600c5160601c337fddf252ad1be2c89b69c2b068fc378daa952ba7f163c4a11628f55a4df523b3ef8480a35160018152f35b63f4d678b88452601cfd5b50346102d95760207ffffffffffffffffffffffffffffffffffffffffffffffffffffffffffffffffc3601126102d95780359061159a613274565b670de0b6b3a7640000821080156115ea575b6103615750907faeba5a6c40a8ac138134bff1aaa65debf25971188a58804bad717f82f0ec131691600254908060025582519182526020820152a180f35b50670ff59ee833b3000082116115ac565b509134610c7457817ffffffffffffffffffffffffffffffffffffffffffffffffffffffffffffffffc360112610c7457823573ffffffffffffffffffffffffffffffffffffffff811681036105815760243590602052637f5e9f20600c523382526034600c209081548181106116a85760209550038091558152602c5160601c907f8c5be1e5ebec7d5bd14f71427d1e84f3dd0314c0f7b2291e5b200ac8c7c3b925843392a35160018152f35b85638301ab388552601cfd5b5050346105ec57817ffffffffffffffffffffffffffffffffffffffffffffffffffffffffffffffffc3601126105ec576020906003549051908152f35b50346102d95760207ffffffffffffffffffffffffffffffffffffffffffffffffffffffffffffffffc3601126102d957356005548110156102d95773ffffffffffffffffffffffffffffffffffffffff906005602094527f036b6384b5eca791c62761152d0c79bb0604c104a5fb6f4eb0703f3154bb3db00154169051908152f35b5090346102d957827ffffffffffffffffffffffffffffffffffffffffffffffffffffffffffffffffc3601126102d95782815180937f95d89b410000000000000000000000000000000000000000000000000000000082528173ffffffffffffffffffffffffffffffffffffffff7f0000000000000000000000000000000000000000000000000000000000000000165afa9182156118fc578392611878575b611874838361186a6027825180947f4379674c503a2000000000000000000000000000000000000000000000000000602083015261185a8151809260208686019101612a79565b8101036007810185520183612b14565b5191829182612a9c565b0390f35b9091503d8084833e61188a8183612b14565b8101906020818303126105e85780519067ffffffffffffffff82116118f8570181601f820112156105e8578051936118c185612c2b565b926118ce85519485612b14565b85845260208684010111610c745750611874936118f19160208085019101612a79565b9038611813565b8480fd5b81513d85823e3d90fd5b5050346105ec57817ffffffffffffffffffffffffffffffffffffffffffffffffffffffffffffffffc3601126105ec576020906002549051908152f35b5090346102d9576101207ffffffffffffffffffffffffffffffffffffffffffffffffffffffffffffffffc3601126102d9576024359273ffffffffffffffffffffffffffffffffffffffff80851684358187036105815760c07fffffffffffffffffffffffffffffffffffffffffffffffffffffffffffffffbc3601126105e857610104803567ffffffffffffffff8111611bff576119e59036908901612ae6565b91909486549560ff871615611d1c577fffffffffffffffffffffffffffffffffffffffffffffffffffffffffffffff0080971688557f000000000000000000000000000000000000000000000000000000000000000092611a463085613944565b9480611c11575b505050611a598461386e565b6e22d473030f116ddee9f6b43ac78ba3803b15611c0d579060848b8a8094868e5197889687957f36c785160000000000000000000000000000000000000000000000000000000087523390870152306024870152166044850152881660648401525af18015611c0357908791611bea575b5050611ae391611ade6112ad923090613944565b612f4e565b958615611bc3576805345cdf77eb68f44c5415611b44575b509060019291611b0d87602099613584565b855190815286888201527fdcbc1c05240f31ff3ad067ef1ee35ce4997762752e3a095284754544f4c709d7863392a36104b96133fd565b96957ffffffffffffffffffffffffffffffffffffffffffffffffffffffffffffffc188101908111611b97576020975090611b0d60019493928098611b8b6103e889613584565b99505050909192611afb565b60248560118a7f4e487b7100000000000000000000000000000000000000000000000000000000835252fd5b85517ff1ca48b1000000000000000000000000000000000000000000000000000000008152fd5b81611bf491612b14565b611bff578538611aca565b8580fd5b88513d89823e3d90fd5b8880fd5b6e22d473030f116ddee9f6b43ac78ba3803b15611d18578b51937f2b67b5700000000000000000000000000000000000000000000000000000000085528d3390860152604435868116809103610581576024860152606435868116809103611d1457604486015260843565ffffffffffff9081811680910361058157606487015260a43590811680910361058157608486015260c435928684168094036105815785611cdd8195938f97938894849660a486015260e43560c486015261010060e4860152840191612bec565b03925af18015611d0a57908891611cf5575b80611a4d565b81611cff91612b14565b610a89578638611cef565b89513d8a823e3d90fd5b8c80fd5b8a80fd5b8989517f37ed32e8000000000000000000000000000000000000000000000000000000008152fd5b50346102d95760207ffffffffffffffffffffffffffffffffffffffffffffffffffffffffffffffffc3601126102d95782549160ff8316156102b3577fffffffffffffffffffffffffffffffffffffffffffffffffffffffffffffff00809316845573ffffffffffffffffffffffffffffffffffffffff600654163303611dd157836001846102aa6133fd565b517f9f91a891000000000000000000000000000000000000000000000000000000008152fd5b50346102d95760207ffffffffffffffffffffffffffffffffffffffffffffffffffffffffffffffffc3601126102d9573573ffffffffffffffffffffffffffffffffffffffff81168103610581576020926338377508600c525281600c20549051908152f35b50346102d95760207ffffffffffffffffffffffffffffffffffffffffffffffffffffffffffffffffc3601126102d9573573ffffffffffffffffffffffffffffffffffffffff81168103610581576020926387a211a2600c525281600c20549051908152f35b5050346105ec57817ffffffffffffffffffffffffffffffffffffffffffffffffffffffffffffffffc3601126105ec576020905173ffffffffffffffffffffffffffffffffffffffff7f0000000000000000000000000000000000000000000000000000000000000000168152f35b5050346105ec57817ffffffffffffffffffffffffffffffffffffffffffffffffffffffffffffffffc3601126105ec57602090516e22d473030f116ddee9f6b43ac78ba38152f35b5050346105ec57817ffffffffffffffffffffffffffffffffffffffffffffffffffffffffffffffffc3601126105ec57602090517f00000000000000000000000000000000000000000000000000000000000000008152f35b508234610c745760207ffffffffffffffffffffffffffffffffffffffffffffffffffffffffffffffffc360112610c7457503573ffffffffffffffffffffffffffffffffffffffff81168103610581577fffffffffffffffffffffffffffffffffffffffffffffffffffffffffffffffff61204d91612cbf565b82519182526020820152f35b5050346105ec57817ffffffffffffffffffffffffffffffffffffffffffffffffffffffffffffffffc3601126105ec57602090612094612e4b565b9051908152f35b5050346105ec57817ffffffffffffffffffffffffffffffffffffffffffffffffffffffffffffffffc3601126105ec576020905173ffffffffffffffffffffffffffffffffffffffff7f0000000000000000000000000000000000000000000000000000000000000000168152f35b5050346105ec57817ffffffffffffffffffffffffffffffffffffffffffffffffffffffffffffffffc3601126105ec5760209073ffffffffffffffffffffffffffffffffffffffff600654169051908152f35b5050346105ec57817ffffffffffffffffffffffffffffffffffffffffffffffffffffffffffffffffc3601126105ec576020906120946133b9565b509134610c7457817ffffffffffffffffffffffffffffffffffffffffffffffffffffffffffffffffc360112610c7457823573ffffffffffffffffffffffffffffffffffffffff8116810361058157602052637f5e9f20600c523381526034600c20928354906024358201918210612245575080602094558152602c5160601c907f8c5be1e5ebec7d5bd14f71427d1e84f3dd0314c0f7b2291e5b200ac8c7c3b925843392a35160018152f35b63f90670668352601cfd5b5050346105ec57817ffffffffffffffffffffffffffffffffffffffffffffffffffffffffffffffffc3601126105ec57602090612094613512565b509134610c7457807ffffffffffffffffffffffffffffffffffffffffffffffffffffffffffffffffc360112610c74576020825180947f313ce5670000000000000000000000000000000000000000000000000000000082528173ffffffffffffffffffffffffffffffffffffffff7f0000000000000000000000000000000000000000000000000000000000000000165afa92831561237a578193612339575b60208460ff855191168152f35b9092506020813d8211612372575b8161235460209383612b14565b810103126102d957519160ff83168303610c74575060ff602061232c565b3d9150612347565b509051903d90823e3d90fd5b509190346105ec57807ffffffffffffffffffffffffffffffffffffffffffffffffffffffffffffffffc3601126105ec5782359073ffffffffffffffffffffffffffffffffffffffff9081831680840361058157602435928084168403610581576123ef613274565b7f0000000000000000000000000000000000000000000000000000000000000000161461242f57509061242c916124263083613944565b916138b2565b80f35b8490517f1d574d8e000000000000000000000000000000000000000000000000000000008152fd5b509134610c745760607ffffffffffffffffffffffffffffffffffffffffffffffffffffffffffffffffc3601126105815773ffffffffffffffffffffffffffffffffffffffff8335818116929183820361058157602435908116810361058157604435916124c583826134b6565b60601b92602096338852600c94637f5e9f20811786526034862080547fffffffffffffffffffffffffffffffffffffffffffffffffffffffffffffffff8103612563575b50506387a211a217855287852090815490818611611554575084900390555284822081815401905584525160601c907fddf252ad1be2c89b69c2b068fc378daa952ba7f163c4a11628f55a4df523b3ef8480a35160018152f35b80871161257a5786900390556387a211a238612509565b836313be252b8652601cfd5b5050346105ec57817ffffffffffffffffffffffffffffffffffffffffffffffffffffffffffffffffc3601126105ec576020906805345cdf77eb68f44c549051908152f35b50346102d957817ffffffffffffffffffffffffffffffffffffffffffffffffffffffffffffffffc3601126102d957359173ffffffffffffffffffffffffffffffffffffffff8316830361058157602092602435908452637f5e9f20600c52338252806034600c20558152602c5160601c907f8c5be1e5ebec7d5bd14f71427d1e84f3dd0314c0f7b2291e5b200ac8c7c3b925843392a35160018152f35b5050346105ec57817ffffffffffffffffffffffffffffffffffffffffffffffffffffffffffffffffc3601126105ec57611874906126a5612c65565b905191829182612a9c565b509190346105ec57817ffffffffffffffffffffffffffffffffffffffffffffffffffffffffffffffffc3601126105ec5781549160ff831615612982577fffffffffffffffffffffffffffffffffffffffffffffffffffffffffffffff00809316815583547320ec0d06f447d550fc6edee42121bc8c1817b97d90813b156102d957829160448392865194859384927f18fccc760000000000000000000000000000000000000000000000000000000084528b8401523060248401525af1801561297857612968575b5090306014526f70a08231000000000000000000000000825260209373958d208cdf087843e9ad98d23823d32e17d723a190858060246010855afa601f3d111686510290816128f7575b5050508051936127df856127d881600561304d565b0386612b14565b8451927fffffffffffffffffffffffffffffffffffffffffffffffffffffffffffffffe061282461280f866130a0565b9561281c86519788612b14565b8087526130a0565b013683860137805b8651811015612873576001906128623073ffffffffffffffffffffffffffffffffffffffff61285b848c6130b8565b5116613944565b61286c82886130b8565b520161282c565b50600161187494929395426007558651606081527fc5252ef97d1913a56f636a69fa3df5248e702e398f142464175250bb7e9ec1e06128c56128b8606084018c6129fb565b8381038985015287612a45565b91428a8201528033930390a28254161790556128ea84519585879687528601906129fb565b9184830390850152612a45565b823b156118f857906024859283865195869485937f67dfd4c90000000000000000000000000000000000000000000000000000000085528401525af1801561295c57908391612947575b806127c3565b8161295191612b14565b6105ec578138612941565b505051903d90823e3d90fd5b8161297291612b14565b38612779565b83513d84823e3d90fd5b8382517f37ed32e8000000000000000000000000000000000000000000000000000000008152fd5b8490346105ec57817ffffffffffffffffffffffffffffffffffffffffffffffffffffffffffffffffc3601126105ec5773ffffffffffffffffffffffffffffffffffffffff6020925460081c168152f35b90815180825260208080930193019160005b828110612a1b575050505090565b835173ffffffffffffffffffffffffffffffffffffffff1685529381019392810192600101612a0d565b90815180825260208080930193019160005b828110612a65575050505090565b835185529381019392810192600101612a57565b60005b838110612a8c5750506000910152565b8181015183820152602001612a7c565b7fffffffffffffffffffffffffffffffffffffffffffffffffffffffffffffffe0601f60409360208452612adf8151809281602088015260208888019101612a79565b0116010190565b9181601f840112156105815782359167ffffffffffffffff8311610581576020838186019501011161058157565b90601f7fffffffffffffffffffffffffffffffffffffffffffffffffffffffffffffffe0910116810190811067ffffffffffffffff821117612b5557604052565b7f4e487b7100000000000000000000000000000000000000000000000000000000600052604160045260246000fd5b90816020910312610581575173ffffffffffffffffffffffffffffffffffffffff811681036105815790565b91908201809211612bbd57565b7f4e487b7100000000000000000000000000000000000000000000000000000000600052601160045260246000fd5b601f82602094937fffffffffffffffffffffffffffffffffffffffffffffffffffffffffffffffe0938186528686013760008582860101520116010190565b67ffffffffffffffff8111612b5557601f017fffffffffffffffffffffffffffffffffffffffffffffffffffffffffffffffe01660200190565b612c6f6012612c2b565b90612c7d6040519283612b14565b601282527f4379676e75733a20436f6c6c61746572616c00000000000000000000000000006020830152565b9190826040910312610581576020825192015190565b9073ffffffffffffffffffffffffffffffffffffffff9182811680158015612dff575b612dd5577fffffffffffffffffffffffffffffffffffffffffffffffffffffffffffffffff8314612d36575b50612d3292506387a211a2600c52600052612d2d6020600c205461337d565b612e08565b9091565b604091925060248251809581937f7d6af07900000000000000000000000000000000000000000000000000000000835260048301527f0000000000000000000000000000000000000000000000000000000000000000165afa8015612dc957612d3292600091612da9575b509038612d0e565b612dc1915060403d8111610fb857610fa78183612b14565b905038612da1565b6040513d6000823e3d90fd5b60046040517fe004593c000000000000000000000000000000000000000000000000000000008152fd5b50308114612ce2565b612e1d612e3591612e17612e4b565b906136f5565b600154612e2f60025460035490612bb0565b91613781565b818110612e43570390600090565b600092910390565b604051907f17e5a1a100000000000000000000000000000000000000000000000000000000825260208260248173ffffffffffffffffffffffffffffffffffffffff807f00000000000000000000000000000000000000000000000000000000000000001660048301527f0000000000000000000000000000000000000000000000000000000000000000165afa918215612dc957600092612f1b575b508115612ef157565b60046040517fb0d5a772000000000000000000000000000000000000000000000000000000008152fd5b90916020823d8211612f46575b81612f3560209383612b14565b81010312610c745750519038612ee8565b3d9150612f28565b91908203918211612bbd57565b6387a211a2600c52806000526020600c20548083118015613045575b61303d57612f91612f8c602494604093612f4e565b61337d565b918151938480927f7d6af07900000000000000000000000000000000000000000000000000000000825273ffffffffffffffffffffffffffffffffffffffff80911660048301527f0000000000000000000000000000000000000000000000000000000000000000165afa908115612dc9576130159260009261301b575b50612e08565b90501590565b61303491925060403d8111610fb857610fa78183612b14565b9050903861300f565b505050600090565b508215612f77565b90815480825260208092019260005281600020916000905b828210613073575050505090565b835473ffffffffffffffffffffffffffffffffffffffff1685529384019360019384019390910190613065565b67ffffffffffffffff8111612b555760051b60200190565b80518210156130cc5760209160051b010190565b7f4e487b7100000000000000000000000000000000000000000000000000000000600052603260045260246000fd5b3573ffffffffffffffffffffffffffffffffffffffff811681036105815790565b7fffffffffffffffffffffffffffffffffffffffffffffffffffffffffffffffff8114612bbd5760010190565b91909173ffffffffffffffffffffffffffffffffffffffff808216156131a457600093845b815181101561319c578061319287868661318b61319796886130b8565b51166138fb565b61311c565b61316e565b505050509050565b50509050565b91908110156130cc5760051b0190565b73ffffffffffffffffffffffffffffffffffffffff928382161561326e577f0000000000000000000000000000000000000000000000000000000000000000841660005b82811061320d57505050505050565b80828761322661322161323195888b6131aa565b6130fb565b16036132365761311c565b6131fe565b6131927fffffffffffffffffffffffffffffffffffffffffffffffffffffffffffffffff8661326961322185898c6131aa565b6138fb565b50505050565b6040517ff851a44000000000000000000000000000000000000000000000000000000000815273ffffffffffffffffffffffffffffffffffffffff90602081600481857f0000000000000000000000000000000000000000000000000000000000000000165afa908115612dc95760009161331e575b501633036132f457565b60046040517f63ac75a2000000000000000000000000000000000000000000000000000000008152fd5b613336915060203d81116113e0576113d18183612b14565b386132ea565b6805345cdf77eb68f44c5460009190806133565750905090565b73ffffffffffffffffffffffffffffffffffffffff61337a935460081c169161383d565b90565b6805345cdf77eb68f44c5460008161339457505090565b9173ffffffffffffffffffffffffffffffffffffffff61337a935460081c169061383d565b6805345cdf77eb68f44c54600090806133da575050670de0b6b3a764000090565b73ffffffffffffffffffffffffffffffffffffffff61337a925460081c1661373e565b7f3145c2b643834867f2c0a8cac8a48218307687911615c0ed01412a09dd163b66602061345261344d307f0000000000000000000000000000000000000000000000000000000000000000613944565b61386e565b6000547fffffffffffffffffffffff0000000000000000000000000000000000000000ff74ffffffffffffffffffffffffffffffffffffffff008360081b1691161760005573ffffffffffffffffffffffffffffffffffffffff60405191168152a1565b903073ffffffffffffffffffffffffffffffffffffffff83161461350e576134dd91612f5b565b156134e457565b60046040517f1ba566ff000000000000000000000000000000000000000000000000000000008152fd5b5050565b60a060405161351f612c65565b602081519101207f8b73c3c69bb8fe3d512ecc4cf759cc79239f7b179b0ffacaa9a75d522b39400f825260208201527fc89efdaa54c0f20c7adf612882df0950f5a951637e0307cdcb4c672f298b8bc660408201524660608201523060808201522090565b6805345cdf77eb68f44c8054908382019182106135e457556387a211a2600c526000526020600c20818154019055602052600c5160601c60007fddf252ad1be2c89b69c2b068fc378daa952ba7f163c4a11628f55a4df523b3ef602080a3565b63e5cfe9576000526004601cfd5b906135fd81836134b6565b6387a211a2600c52816000526020600c2091825491828111613670576000938173ffffffffffffffffffffffffffffffffffffffff940390556805345cdf77eb68f44c8181540390558352167fddf252ad1be2c89b69c2b068fc378daa952ba7f163c4a11628f55a4df523b3ef602083a3565b63f4d678b86000526004601cfd5b91906387a211a28360601b17600c526020600c2080548084116136705783900390556000526020600c2081815401905560205273ffffffffffffffffffffffffffffffffffffffff600c5160601c91167fddf252ad1be2c89b69c2b068fc378daa952ba7f163c4a11628f55a4df523b3ef602080a3565b90807fffffffffffffffffffffffffffffffffffffffffffffffffffffffffffffffff048211810261373057670de0b6b3a764000091020490565b63bac65e5b6000526004601cfd5b670de0b6b3a7640000907812725dd1d243aba0e75fe645cc4873f9e65afe688c928e1f21811182021583021561377357020490565b637c5f487d6000526004601cfd5b91600092828102927fffffffffffffffffffffffffffffffffffffffffffffffffffffffffffffffff8183099184831085018084039314613821578284111561381457908391099060018386038416808080960460028082600302188083028203028083028203028083028203028083028203028083028203028092029003029703040190848311900302920304170290565b63ae47f70286526004601cfd5b50505091821561383057500490565b63ae47f70290526004601cfd5b92919061384b828286613781565b930961385357565b9060010180156138605790565b63ae47f7026000526004601cfd5b740100000000000000000000000000000000000000008110156138a45773ffffffffffffffffffffffffffffffffffffffff1690565b6335278d126000526004601cfd5b60109260209260145260345260446000938480936fa9059cbb00000000000000000000000082525af13d1560018351141716156138ee57603452565b6390b8ec1890526004601cfd5b60109260209260145260345260446000938480936f095ea7b300000000000000000000000082525af13d15600183511417161561393757603452565b633e3f8f7390526004601cfd5b602460106020939284936014526f70a082310000000000000000000000006000525afa601f3d1116602051029056fea164736f6c6343000811000a",
  "linkReferences": {},
  "deployedLinkReferences": {}
}